:020000040800F2
:10000000A8060020CD010008B90A00082108000850
:10001000E509000887020008A1120008000000009E
:10002000000000000000000000000000810C00083B
:100030004504000800000000350B00085D0D0008B5
:10004000E7010008E7010008E7010008E7010008F0
:10005000E7010008E7010008E7010008E7010008E0
:10006000E7010008E7010008E7010008E7010008D0
:10007000E7010008E7010008E7010008E7010008C0
:10008000E7010008E7010008E7010008E7010008B0
:10009000E7010008E7010008E7010008E7010008A0
:1000A000E7010008E7010008E7010008E701000890
:1000B000A10D0008E7010008E7010008E7010008BA
:1000C000E7010008E7010008E7010008E701000870
:1000D000E7010008E7010008E701000849100008EF
:1000E000EB040008E7010008E7010008E701000849
:1000F000E7010008E7010008E7010008E701000840
:10010000E7010008E7010008E7010008E70100082F
:10011000E7010008E7010008E7010008E70100081F
:10012000E7010008E7010008E7010008E70100080F
:1001300000F002F800F03AF80AA090E8000C8244BF
:100140008344AAF10107DA4501D100F02FF8AFF29C
:10015000090EBAE80F0013F0010F18BFFB1A43F0A5
:10016000010318476013000080130000103A24BFF9
:1001700078C878C1FAD8520724BF30C830C144BF0C
:1001800004680C607047000000230024002500264E
:10019000103A28BF78C1FBD8520728BF30C148BFEA
:1001A0000B6070471FB51FBD10B510BD00F031F8D2
:1001B0001146FFF7F7FF01F0DBF800F04FF803B44A
:1001C000FFF7F2FF03BC00F057F800000948804732
:1001D00009480047FEE7FEE7FEE7FEE7FEE7FEE729
:1001E000FEE7FEE7FEE7FEE704480549054A064B41
:1001F00070470000610D000831010008A8000020D0
:10020000A8060020A8020020A8020020704770471E
:100210007047754600F02CF8AE4605006946534617
:1002200020F00700854618B020B5FFF7DDFFBDE8D8
:1002300020404FF000064FF000074FF000084FF04D
:10024000000B21F00701AC46ACE8C009ACE8C009DE
:10025000ACE8C009ACE8C0098D46704710B504464B
:10026000AFF300802046BDE81040FFF7A8BF0000B4
:10027000004870474400002001491820ABBEFEE74B
:10028000260002007047FEE7044940420870044916
:100290000870044908700449087070471500002070
:1002A00016000020170000201800002004490870E4
:1002B0000449087004490870044908707047000038
:1002C0001500002016000020170000201800002054
:1002D000054A6FF013011170044A1070044A0A3085
:1002E00011700449087070471500002016000020A6
:1002F00017000020180000202DE9F041364D102194
:10030000284600F0E2F90421284600F0DEF93348DF
:10031000E914344C90F900203148002A1BDD236891
:10032000934202D200F0D1F901E000F0CCF90121B2
:10033000284600F0C8F92C482C4F4FF4007690F96D
:100340000000002823DD2168814210D24021284688
:1003500000F0BBF90FE0E8DA236852429342E4D29E
:1003600000F0B1F90121284600F0AFF9E3E74021A0
:10037000284600F0A8F93146384600F0A4F91C4898
:100380001C4D90F9000000281FDD216820E0EEDA06
:100390002168C0F100008142E9D24021284600F0E6
:1003A00092F93146384600F090F9E8E710212846E6
:1003B00000F08BF903E01021284600F084F928466C
:1003C000BDE8F041012100F07EB9F4DA2168404235
:1003D0008142F0D2EAE7000000140140160000203C
:1003E0000010014000000020170000200020014004
:1003F00019000020001801400549064A08706FF0F6
:1004000013011170044A0A301070044801707047DB
:100410001500002016000020170000201800002002
:100420000449002008700449087004490870044910
:1004300008707047150000201600002017000020EB
:1004400018000020704710B504460AE0012000F0B3
:1004500041F800F0A9F920B1BDE810400020FFF7F5
:10046000DFBF641EF2D210BD10B5044602E08C203E
:1004700000F004F8641EE4B2F9D210BD31B50C4DA1
:100480000098012184B2284600F0EAFC2146284663
:1004900000F006FD03E0284600F0ECFC0446012CC9
:1004A000F9D82846BDE83840002100F0D9BC00004A
:1004B0000004004000EBC0014FF0E0204161016901
:1004C00041F0010101610169C903FCD5002101610D
:1004D0008161704700B502464FF47A7302E0184616
:1004E000FFF7E8FF521EFAD200BD10B54FF480644A
:1004F000204600F017F820B1204600F00DF800F07B
:10050000CBF9204600F00EF8002804D02046BDE8C4
:10051000104000F001B810BD0149086070470000AC
:1005200014040140064A014600201268044B0A40A8
:1005300014331B680B4202D0002A00D00120704700
:100540000004014030B51A4A8379016853B3136837
:100550008B431360111D0B680468A3430B60017982
:1005600011440B68046823430B60114B083319686E
:100570000468A14319601C1D21680568A943216016
:100580004179102905D011440A68006802430A60C5
:1005900030BD196802681143196021680068014381
:1005A000216030BD0079104402688A43026030BD8A
:1005B0000004014010B50121042000F0C9FA012116
:1005C000082000F0C5FA0121102000F0C1FA012135
:1005D000202000F0BDFA0121402000F0B9FA0121ED
:1005E000802000F0B5FA0121BDE81040080200F0BB
:1005F000AFBA000010B58A0721F003040649120FB4
:1006000021440F238C6893409C438C608B689040FE
:1006100003438B6010BD000000000140F0B5CC78B2
:10062000002204F00F03E40601D58C7823430C78F4
:100630004FF00F0C14F0FF0F4FF0010E1BD00568A8
:100640000E880EFA02F42640A64210D196000CFA4B
:1006500006F725EA070703FA06F5CE783D43282E6C
:1006600002D0482E02D002E0446100E00461521C36
:10067000082AE5D305600A88FF2A1CD944680022AD
:1006800002F108060EFA06F50E882E40AE420ED193
:1006900096000CFA06F7BC4303FA06F7CE783C4303
:1006A000282E00D14561CE78482E00D10561521C1C
:1006B000082AE5D34460F0BD0246002092680A4251
:1006C00000D0012070474161704701617047000010
:1006D0002DE9F047304F4FF4807631463846FFF72A
:1006E000F2FF2E4C012020702D4D0021284600F0F5
:1006F000D7FB0121284600F0B3FB284600F0BAFBE7
:100700000B28FAD30220207031463846FFF7DDFF70
:100710000021284600F0C4FBA94600274EF66028B9
:100720004FF480451F4E04E0484600F0A3FB4045CF
:100730000FD829463046FFF7BFFF0028F4D000212C
:10074000484600F0ADFB0CE0484600F093FB404506
:1007500007DD2770A7604846BDE8F047002100F09C
:100760007FBB29463046FFF7A7FF0128ECD04D4656
:10077000484600F07FFB60600021284600F070FBD7
:1007800060684FF4FA6100EB0010400090FBF1F05C
:10079000A0602770BDE8F087001401402000002011
:1007A00000080040000C01402DE9F0411A4F0026DE
:1007B000354604213846FFF77FFF88B9022408E058
:1007C00004213846FFF778FF012807D00120FFF702
:1007D00081FE641E64B2002CF2D100E004B901264F
:1007E0000E4F80213846FFF767FF88B9022408E0E2
:1007F00080213846FFF760FF012807D00120FFF76E
:1008000069FE641E64B2002CF2D100E004B9022536
:100810007019BDE8F0810000002001400010014087
:10082000FEE700007FB50121084600F091F94FF482
:100830008064ADF80C4048208DF80F0003208DF83F
:100840000E0003A91348FFF7E9FE0A210320FFF772
:10085000D1FE0C2000948DF8050000248DF8044092
:1008600001258DF806506846FFF76CFE4FF4E060F6
:1008700000F056F928208DF808008DF809408DF811
:100880000A408DF80B5002A800F018F900F058FB50
:100890007FBD0000001401402DE9F04700240F2027
:1008A000FFF7E2FD464E4FF4806739463046FFF7CA
:1008B00003FF012871D043492820087002E001207D
:1008C000FFF7D2FD39463046FFF7F6FE0028F6D096
:1008D000DFF8F4900025B046002602E00120FFF783
:1008E000C3FD39464046FFF7E7FE0028F6D102E097
:1008F0000120FFF7B9FD39464046FFF7DDFE00282D
:10090000F6D006E00120FFF7AFFD641CE4B21E2C18
:1009100052D239464046FFF7CFFE0028F2D119F8EF
:1009200005004946400809F80500082C03D340F0AB
:10093000800009F80500761C0024F6B2082ED0D3FA
:100940006D1CEDB2042DC7D3C97899F80200C943D4
:10095000C9B2884230D11D49012443280BD012DC92
:100960001B4A4FF00003162820D006DC0C2819D0B3
:10097000152821D1422008701BE0402810D04228C1
:100980001AD13720F7E74428F5D0462806D04A2860
:1009900014D0522810D13820EDE70DE04120EAE7CD
:1009A000492004E031200870146002E03220087011
:1009B00013600548401E0470BDE8F0873920DAE76F
:1009C00000140140070000201B000020060000204A
:1009D0001000002002490A6842400A607047000087
:1009E0000C180140FEE70000F8B54FF40050ADF8D8
:1009F000000002208DF80200224E10248DF80340E2
:100A000069463046FFF70AFEE501ADF80050694639
:100A10003046FFF703FEADF8005069461A48FFF76D
:100A2000FDFD1A4F0125ADF8005069463846FFF725
:100A3000F5FD4020ADF8000069463846FFF7EEFDB1
:100A40006001ADF8000069463046FFF7E7FDADF8FC
:100A5000004069463846FFF7E1FD0420ADF800008C
:100A600069463846FFF7DAFDADF80040084C6946A4
:100A70002046FFF7D3FDADF8005069462046FFF74A
:100A8000CDFDF8BD002001400010014000140140E0
:100A90000018014010B5FFF7A7FF0020FFF7C0FCCA
:100AA00001490020087010BD19000020014908709C
:100AB00070470000190000207047000030B50F2378
:100AC000C27801780125F2B1144A126801F1E021DF
:100AD00002F4E062C2F5E062120AC2F10404D340FB
:100AE0004278A24084781C401443220181F80024FB
:100AF000007800F01F018D404009800000F1E020E7
:100B0000C0F8005130BD01F01F0085404809800049
:100B100000F1E020C0F8805130BD00000CED00E095
:100B20000249084302490860704700000000FA05C6
:100B30000CED00E070470000044A0029D16901D0A3
:100B4000014300E08143D161704700000010024082
:100B5000044A0029916901D0014300E08143916179
:100B6000704700000010024030B5204A5168204B09
:100B700011F00C0103D0042901D0082901D0036031
:100B800012E05168536801F470114FF0020413F43D
:100B9000803F04EB914102D053689B0301D5154B74
:100BA00000E0134B5943016051680F2303EA111110
:100BB000114B5C5C0168E14041605468072505EA1F
:100BC00014241C5D21FA04F48460546805EAD424DA
:100BD0001B5DD940C1605268032303EA9232064B81
:100BE0001B1F9A5CB1FBF2F1016130BD00100240A5
:100BF00000127A0000093D0034000020F8B54FF4DF
:100C00008070ADF8000048251B4E8DF8035003247A
:100C10008DF8024069463046FFF700FD4020ADF8F0
:100C200000008DF803508DF8024069463046FFF70A
:100C3000F5FC1020ADF800008DF803508DF802404F
:100C400069463046FFF7EAFC8020ADF800008DF8D9
:100C500003508DF8024069460848FFF7DFFC042086
:100C6000ADF800008DF803508DF80240694630461B
:100C7000FFF7D4FCF8BD0000002001400010014047
:100C80007047000038B54FF48054ADF80040102094
:100C90008DF803000320064D8DF8020069462846B2
:100CA000FFF7BCFC21462846FFF70FFD38BD0000CA
:100CB000001401400CB50022264800920192016800
:100CC00041F4803101604FF4A063016801F4003108
:100CD00001910099491C0091019911B9009999421B
:100CE000F3D10168890333D5012101911A490A68BA
:100CF00042F010020A600A6822F003020A600A68E1
:100D000042F002020A604168416041684160416806
:100D100041F480614160416821F47C114160416887
:100D200041F4E8114160016841F08071016001689F
:100D30008901FCD5416821F003014160416841F01F
:100D4000020141604168C1F381010229FAD10CBD61
:100D500001920CBD001002400020024070470000CC
:100D60000C48016841F00101016041680A4A1140E4
:100D700041600168094A11400160016821F4802145
:100D80000160416821F4FE0141604FF41F01816060
:100D9000FFF790BF001002400000FFF8FFFFF6FED3
:100DA00010B501218C07204600F066F800281CD001
:100DB0000121204600F051F80C490878401CC0B2CF
:100DC00008700A2811D300240C700949094A0868E0
:100DD000401C086013785B1C1370322800D30C6031
:100DE000BDE810403020FFF787BA10BD1400002086
:100DF00000000020040000207FB501210846FFF715
:100E00009BFE6320ADF804004720ADF800000024ED
:100E10004FF08045ADF80640ADF8024069462846DF
:100E200000F040F80121284600F017F80122114691
:100E3000284600F02DF80121284600F011F81C206A
:100E40008DF80C008DF80D4001208DF80E008DF806
:100E50000F0003A8FFF732FE7FBDC9430182704730
:100E60000029018802D041F0010101E021F00101D7
:100E700001807047808C704702460020138A928957
:100E80000B4202EA010202D0002A00D00120704782
:100E9000002A828901D00A4300E08A438281704798
:100EA0008184704730B502881B4C1C4DA0420DD088
:100EB000A8420BD0B0F1804F08D0194B984205D012
:100EC000184B984202D0184B984203D122F070037D
:100ED0004A881A43154B984206D0154B984203D0C6
:100EE00022F44073CA881A4302808A8882850A885D
:100EF0000285A0420AD0A84208D00E4A904205D0EE
:100F00000D4A904202D00D4A904201D1097A0186E1
:100F10000121818230BD0000002C014000340140DD
:100F20000004004000080040000C00400010004099
:100F300000140040004001400044014000480140CE
:100F40000EB501210220FFF7F7FD0120ADF80400E6
:100F50004720ADF800001020ADF8020069460248B5
:100F6000FFF7A0FF0EBD0000000400400EB50121F8
:100F70000420FFF7E1FD4FF6FF70ADF804004720B5
:100F8000ADF800000020ADF8020069460148FFF707
:100F900089FF0EBD0008004070B50446012186B0EF
:100FA0008804FFF7C9FD4FF48060ADF810000225FA
:100FB0008DF812501820224E8DF8130004A93046E7
:100FC000FFF72CFB04218DF813104802ADF8100038
:100FD00004A93046FFF722FB00940024ADF8084036
:100FE0000C20184EADF80440ADF80A00ADF80640EC
:100FF000ADF80C406946304600F0B0F8012240F2EE
:101000002551304600F092F80121304600F065F895
:101010004021304600F058F84FF4E060FFF780FDC3
:1010200027208DF814008DF815408DF816500120FA
:101030008DF8170005A8FFF741FD06B070BD000050
:10104000000C01400048004070B51A4C40F2255594
:101050002946204600F04BF800281DD0294620469E
:1010600000F035F8204600F0CFF8C0B2124A012156
:10107000492812D0412814D0422812D0432810D039
:1010800044280ED031280BD0322806D0372808D07B
:10109000382806D0392804D070BD0023136000E042
:1010A0001160064A11700649087006492820087028
:1010B00070BD000000480040100000200800002023
:1010C0000600002007000020C943018070470A0A7B
:1010D00001219140C943018070470029818902D0D4
:1010E00041F4005101E021F400518181704770B555
:1010F00001F01F0501260024C1F3421306FA05F290
:10110000012B0FD0022B0FD0838A4FEA11210088C8
:10111000134206FA01F600EA060001D000B10124EC
:10112000204670BD8389F0E7038AEEE710B5C1F36E
:10113000421301F01F040121A140012B07D0022B13
:1011400007D01430002A026805D00A4304E00C30AE
:10115000F8E71030F6E78A43026010BD30B5044668
:10116000008A85B00D464CF6FF710840E9880143BE
:101170002182A0894EF6F3110840A9882A891143DB
:101180006A8902431143A181A08A4FF6FF410840BA
:10119000A9890143A1826846FFF7E6FC1948844209
:1011A00001D1039800E00298A189090400EBC00175
:1011B00001EB0010296801D5490000E08900B0FB6F
:1011C000F1F06422B0FBF2F109010B096FF0180590
:1011D0006B4300EB8300A3891D044FF0320306D557
:1011E00003EBC000B0FBF2F000F0070005E003EBFA
:1011F0000010B0FBF2F000F00F000843208105B0B2
:1012000030BD0000003801408088C0F308007047FE
:101210002DE9FF414FF48045ADF8005048208DF88E
:1012200003001E4F03248DF8024069463846FFF73D
:10123000F5F9AE11ADF8006010208DF803008DF8BF
:10124000024069463846FFF7E9F90E210120FFF711
:10125000D1F90C2001958DF8090000258DF8085072
:101260008DF80A5001A8FFF76DF94FF4E060FFF721
:1012700057FC28208DF80C008DF80D508DF80E408D
:1012800001208DF80F0003A8FFF718FCFFF76EFE92
:1012900031463846FFF719FABDE8FF8100140140D6
:1012A000FEE7000038B54FF48054ADF80040102040
:1012B0008DF803000320064D8DF80200694628468C
:1012C000FFF7ACF921462846FFF7FFF938BD0000CB
:1012D0000018014070B50646FFF766FA0546FFF7AD
:1012E000F7F91D4800680A2800D2052544201B494B
:1012F0004FF4FA74062D2DD2DFE805F025030E1EFB
:101300002C0F08703046FEF7BFFF2046FFF7E2F8CB
:101310003046FEF7DDFF0AE0432008703046FEF756
:10132000B3FF2046FFF7D6F83046FFF765F82046B2
:10133000BDE87040FFF787B808703046FEF7A4FF9D
:101340004FF42F70EEE7412008703046BDE8704042
:10135000FEF7ACBF70BD0000280000200600002092
:101360004FF0E020016921F00401016170470000A5
:10137000FFF7F6FFFFF71EF9FFF794FFFFF752FAAA
:10138000FFF73AFDFFF786FBFFF742FFFFF736FC5A
:10139000FFF778FC4FF41650FFF7FEFD0025464E90
:1013A0004FF48057DFF81481454C09E03946404638
:1013B000FFF78BF9207AFFF779FB2820FFF78AFFE8
:1013C000E0680028F2D120780528F9D325706078EC
:1013D000401CC0B26070282803D365703846FFF700
:1013E000F9FAE078401E10F0FF00E07007D101200C
:1013F000E0700020FFF714F80020FFF757FB20797A
:10140000012800D000203178012900D000210843B4
:10141000D6D02571357094F90200422834D00FDC03
:1014200037281ED0382822D0392827D04128C7D1C4
:1014300039464046FFF749F92820FEF737FF0CE010
:10144000432829D044282FD04928B9D139464046CD
:10145000FFF73BF90020FEF7E3FF207AFFF726FBBA
:10146000AEE739464046FFF730F91E2004E0394622
:101470004046FFF72AF92820A060EFE739464046AA
:10148000FFF723F92E20F7E739464046FFF71DF90D
:101490002820FEF7F9FEE0E739464046FFF715F948
:1014A0002820FEF715FFD8E739464046FFF70DF92B
:1014B0002820FEF7A1FFD0E71A0000200018014005
:1014C00004000020E4140008000000204400000094
:1014D0006C01000828150008440000206406000084
:1014E0008801000800000000000049000000000022
:1014F00000000000000000000000000000000000EC
:1015000000000000000000000000000000000000DB
:1015100000000000020406080000000001020304AD
:0815200001020304060708099B
:0400000508000131BD
:00000001FF
